:1000000000207047704708B5406803681B6998472F
:10001000003818BF012008BD10B5144640680368B9
:100020005B689847204610BD10B404680968E46B0B
:10003000A4465DF8044B604703680A46DB6C18472A
:10004000072A10B510D80C290ED80D2404FB020085
:100050009DF8082001449DF80C000243134314BF8F
:100060000123002381F8493010BD704707B50368AC
:100070008DF8071001225B680DF10701984703B066
:100080005DF804FB004B1847000000000148024BDC
:10009000184700BF000000000000000010B5044633
:1000A0000821024B9847204610BD00BF0000000009
:1000B00070B504460D46164600214068044B98472B
:1000C000324629466068034BBDE87040184700BFC0
:1000D000000000000000000013B5064B0C46012292
:1000E00001A99847012812BF00209DF80430237011
:1000F00002B010BD000000000049084700000000E9
:10010000F8B506461124054D054F013C00D1F8BD58
:1001100028793146B8470835F7E700BF980900004D
:1001200000000000F8B505460024074E074F294699
:1001300056F83400B84708B92046F8BD01341C2CE5
:10014000F5D14FF0FF30F8E7C80A000000000000CA
:1001500010B5084B00680C469847002808DB064B92
:100160002146BDE8104003EBC0031879034B184744
:1001700010BD00BF00000000C80A00000000000021
:1001800008B5064B00689847054B03EBC003187988
:10019000044B9847003818BF012008BD000000003C
:1001A000C80A00000000000010B5054B0068984721
:1001B000BDE81040034B03EBC0031879024B18470E
:1001C00000000000C80A00000000000008B5024B53
:1001D0009847012008BD00BF00000000004B1847F1
:1001E0000000000010B50446024B0360024B984724
:1001F000204610BD080000000000000010B50446B5
:10020000034B98472046E021024B9847204610BDFB
:100210000000000000000000012A10B50C4602D1C9
:100220000160002010BD022A05D0032AF9D0002A5F
:10023000F7D10260F5E70146024B04209847236896
:100240000360EEE7000000001FB5054B046801A83D
:10025000984701A8A047034B01A8984704B010BDD8
:100260000000000000000000012A10B50C4602D179
:100270000160002010BD022A05D0032AF9D0002A0F
:10028000F7D10260F5E70146024B04209847236846
:100290000360EEE7000000000368087818470000DC
:1002A000012A10B50C4602D10160002010BD022ABF
:1002B00005D0032AF9D0002AF7D10260F5E70146FC
:1002C000024B0420984723680360EEE7000000001B
:1002D0001FB5064B046801A8984701A8A04704462B
:1002E000034B01A89847204604B010BD0000000051
:1002F00000000000012A10B50C4602D10160002068
:1003000010BD022A05D0032AF9D0002AF7D10260D5
:10031000F5E70146024B0420984723680360EEE7A7
:10032000000000001FB5064B046801A8984701A80B
:10033000A0470446034B01A89847204604B010BDCF
:100340000000000000000000012A10B50C4602D198
:100350000160002010BD022A05D0032AF9D0002A2E
:10036000F7D10260F5E70146024B04209847236865
:100370000360EEE70000000030B5144685B0056864
:10038000054B01A89847217801A8A847034B01A86D
:10039000984705B030BD00BF00000000000000001D
:1003A00038B50C1A002C134605DD014622461846C6
:1003B000024DA8470346181938BD00BF00000000D1
:1003C00070B504460D46054EB04705F10C0104F129
:1003D0000C00B047AB69A36170BD00BF0000000016
:1003E000002810B506D001DA034B9847034BBDE84F
:1003F0001040184710BD00BF0000000000000000C2
:10040000004B18470000000070B5044600F5087660
:100410004FF0FF334FF0FF32304612498847D4F88F
:100420001C320025ABB1D4F81C32BBB1D4F8183261
:1004300023441D7DD4F818320133C3F30803C4F8F4
:100440001832D4F81C32013BC4F81C32D4F81C32E8
:10045000EDB23046044B9847284670BD4FF0FF354B
:10046000F4E700BF000000000000000038B50446BB
:1004700000F508754FF0FF324FF0FF3328460A4968
:100480008847D4F81C222846084B42B19847D4F834
:100490001C322BB1D4F818321C44207D38BD98474B
:1004A0004FF0FF30FAE700BF00000000000000003E
:1004B0000A200021004B18470000000010B5836897
:1004C000044613B1032201469847204610BD0000A0
:1004D00010B50446034B40F8043B034B98472046B5
:1004E00010BD00BF080000000000000010B5044669
:1004F000034B984720461421024B9847204610BDD5
:10050000000000000000000010B50446034B40F856
:10051000043B034B9847204610BD00BF0800000075
:100520000000000010B50446034B984720461421F4
:10053000024B9847204610BD00000000000000005C
:1005400010B50446034B40F8043B034B9847204644
:1005500010BD00BF080000000000000010B50446F8
:10056000034B984720461421024B9847204610BD64
:10057000000000000000000010B50446034B40F8E6
:10058000043B034B9847204610BD00BF0800000005
:100590000000000010B50446034B98472046142184
:1005A000024B9847204610BD0000000000000000EC
:1005B00010B50446034B40F8043B034B98472046D4
:1005C00010BD00BF080000000000000010B5044688
:1005D000034B984720461421024B9847204610BDF4
:1005E0000000000000000000D0E901239B1A02690E
:1005F000B2EBA30F84BF00234375407D7047D0E961
:100600000132934218BF8360002303618382036039
:10061000704710B5D0E901431B1BB1EBA30F3DBFE1
:1006200054F821300068D218002038BF801810BD5F
:1006300070B5074E051D044631462846054B9847C0
:100640000023314623602846034B9847204670BD5F
:1006500004060000000000000000000038B5044659
:10066000034D0C30A8472046A847204638BD00BFA0
:10067000000000000022C0E90022C0E9022202615D
:100680008282704738B54FF4807200210C4B0446CB
:10069000002598474FF0FF330A49C4E94053C4F896
:1006A0000851094B04F586709847C4E94655C4E9DA
:1006B0004855064B04F594709847204638BD00BF56
:1006C0000000000004060000000000000000000020
:1006D000F0B5044600260127CB688BB00D6848684A
:1006E0008A68089393FAA3F30493D4F8DC3005A93D
:1006F00005950690079295FAA5F590FAA0F092FA62
:10070000A2F20996C4F8B860C4F8C810C4F8CC7056
:10071000019502900392C4F8D06003B19847054B4D
:1007200084F8D97001A898470023C4F8D0300BB0E2
:10073000F0BD00BF00000000F0B5002304464F09E3
:10074000251AEEB2C5F34215BD4207D30023184661
:1007500001F01F0199420BDC1060F0BD14F8015B41
:1007600001362B43F50608BF42F8043B5B00E7E780
:10077000E55CC3F11F06B54028430133EAE7704743
:1007800010B50446006818B1A168024B091A9847D1
:10079000204610BD0000000008B50248024B9847F3
:1007A00008BD00BF000000000000000008B50248BE
:1007B000024B984708BD00BF000000000000000089
:1007C00030B5836885B003930023D0E900420D68FB
:1007D000CDE9014205604D6845608D688560C1E9DD
:1007E00000338B6001A8024B984705B030BD00BFB5
:1007F0000000000010B5D0E901431B1BB1EBA30FB3
:100800003DBF036854F82110D218002038BF505C57
:1008100010BD000008B5D0E90132D31AB1EBA30F27
:1008200015D2114B00229847030612D58F2812D9F2
:100830009F2812D9BF2812D9C02807D0C12805D0B7
:10084000C3280ED9E02828BFE020C0B208BDC120CF
:10085000FCE70020FAE78020F8E79020F6E7A020E8
:10086000F4E7C220F2E700BF0000000008B5024B29
:100870000169984708BD00BF0000000073B5056915
:10088000D0E901639B1BB5EBA30F044603D3002300
:100890004375002016E0012343750D4B9847D2287D
:1008A00005F1010310D1236156F825002268031DCC
:1008B000134401A9024413F801099A4201F8010BFB
:1008C000F9D1019802B070BD002223616275E0E7A2
:1008D0000000000073B50569D0E901639B1BB5EB0F
:1008E000A30F044604D3002343750020002118E021
:1008F000012343750E4B9847D32805F1010312D10C
:100900006946236156F82500226800F10803134464
:10091000024413F801099A4201F8010BF9D1DDE90B
:10092000000102B070BD002223616275DDE700BFE7
:100930000000000070B50669D0E901239B1AB6EBF0
:10094000A30F044603D300234375002008E00125CC
:10095000064B45759847C0282E4402D1284626618B
:1009600070BD002326616375EFE700BF0000000043
:1009700008B5064B9847902806D02430C0B201280D
:100980008CBF0020012008BD0120FCE70000000012
:1009900008B5064B9847A02806D02730C0B20228D9
:1009A0008CBF0020012008BD0120FCE700000000F2
:1009B00008B5064B9847802806D02230C0B20128DF
:1009C0008CBF0020012008BD0120FCE700000000D2
:1009D00008B5064B9847E02806D03030C0B203284F
:1009E0008CBF0020012008BD0120FCE700000000B2
:1009F00008B5064B984730B13430C0B203288CBFDD
:100A00000020012008BD0120FCE700BF000000001D
:100A100070B50569D0E901639B1BB5EBA30F0446D4
:100A200003D300234375002011E0012343750A4BD3
:100A30009847D12805F101030AD1236156F82520F2
:100A40002368134498785B7863F30F2000B270BD7D
:100A5000002223616275E6E70000000073B50569B6
:100A6000D0E901639B1BB5EBA30F044604D300231D
:100A700043759FED100A17E0012343750E4B98470D
:100A8000CA2805F1010311D1236156F82500226817
:100A9000031D134401A9024413F801099A4201F805
:100AA000010BF9D19DED010A02B070BD0022236156
:100AB0006275DEE70000000000000000000000009A
:100AC00073B50569D0E901639B1BB5EBA30F044621
:100AD00004D3002343759FED120B18E001234375E7
:100AE000114B9847CB2805F1010312D169462361C8
:100AF00056F82500226800F108031344024413F855
:100B000001099A4201F8010BF9D19DED000B02B0E9
:100B100070BD002223616275DDE700BFAFF3008086
:100B200000000000000000000000000038B505696A
:100B3000D0E901239B1AB5EBA30F044603D300238E
:100B4000437500200EE001234375094B9847E028C8
:100B500005F1010307D12361002229462046054BF8
:100B6000984740B238BD002223616275E9E700BFB3
:100B7000000000000000000038B50569D0E901233D
:100B80009B1AB5EBA30F044603D300234375002043
:100B90000DE001234375084B98476B1C024638B99A
:100BA000236129462046054B984700F07F0038BD59
:100BB000002223616275EAE70000000000000000E7
:100BC00070B50569D0E901239B1AB5EBA30F044664
:100BD00003D30023437500200DE00126084B467522
:100BE0009847CC2805EB060306D1236132462946F7
:100BF0002046044B984770BD002223616275EAE7E6
:100C0000000000000000000010B5D0E901431B1BEC
:100C1000B1EBA30F37BF54F821300020D21803687E
:100C20003FBF991848789B5C40EA032010BD000044
:100C300070B50569D0E901239B1AB5EBA30F0446F3
:100C400003D30023437500200DE00126084B4675B1
:100C50009847CD2805EB060306D123613246294685
:100C60002046044B984770BD002223616275EAE775
:100C7000000000000000000013B5D0E901431B1B79
:100C8000B1EBA30F10D254F8213001681A44131DA0
:100C90000B4401A8114413F8012D8B4200F8012BDD
:100CA000F9D1019802B010BD0020FBE738B5424BE6
:100CB00004460D469847002877D08038C3B2602B91
:100CC00075D8602873D8DFE800F0707272727272A3
:100CD00072727272727272727272707272727272F6
:100CE000727272727272727272723F727272727217
:100CF00072727272727272727272727272727272D4
:100D00007272727272727272727270727072484F14
:100D1000565D62693539743135397431353931335D
:100D2000373B3D484F56313531357000032038BDD3
:100D30000420FCE70520FAE70620F8E70920F6E79B
:100D40000A20F4E71220F2E70022294620461B4B36
:100D5000984700F01F000130E9E7012229462046AC
:100D6000164B98470230E2E7012229462046144BF1
:100D700098470330DBE7012229462046114B98476C
:100D80000530D4E70122294620460C4BF0E701222A
:100D9000294620460A4B98470430C8E701222946D5
:100DA0002046084B98470630C1E70120BFE70020E6
:100DB000BDE70220BBE700BF00000000000000000C
:100DC000000000000000000070B50569D0E90123B3
:100DD0009B1AB5EBA30F044603D3002343750020F1
:100DE00013E00126124B46759847DC2805EB0603F5
:100DF0000CD0DD2811D0902815D12361002229467E
:100E000020460C4B984700F00F0070BD3246294633
:100E100020462361084B9847F7E72361324629466D
:100E20002046064BF7E7002223616275D7E700BF33
:100E300000000000000000000000000000000000B2
:100E400038B5037D04460D461BB1D0E901239A4213
:100E500002D10023637538BD9B1A0269B2EBA30F60
:100E6000F7D2054B98472860637D002BF3D02046CE
:100E7000024B9847EFE700BF0000000000000000B1
:100E800070B50569D0E901239B1AB5EBA30F0446A1
:100E900003D30023437500200DE00126084B46755F
:100EA0009847CE2805EB060306D123613246294632
:100EB0002046044B984770BD002223616275EAE723
:100EC000000000000000000070B50569D0E90123B2
:100ED0009B1AB5EBA30F044603D3002343750020F0
:100EE00013E00126124B46759847DE2805EB0603F2
:100EF0000CD0DF2811D0802815D12361002229468B
:100F000020460C4B984700F00F0070BD3246294632
:100F100020462361084B9847F7E72361324629466C
:100F20002046064BF7E7002223616275D7E700BF32
:100F300000000000000000000000000000000000B1
:100F400013B5D0E901431B1BB1EBA30F12D254F828
:100F50002130016868461A4402F108030B44114429
:100F600013F8012D8B4200F8012BF9D1DDE90001C6
:100F700002B010BD00200021FAE7000070B505693D
:100F8000D0E901239B1AB5EBA30F044604D3002339
:100F90004375002001460DE00126094B4675984730
:100FA000CF2805EB060306D12361324629462046A9
:100FB000044B984770BD002223616275E9E700BFCA
:100FC000000000000000000010B5D0E901431B1B29
:100FD000B1EBA30F3DBF036854F82110D2180020D5
:100FE00038BF505610BD000070B50569D0E9012327
:100FF0009B1AB5EBA30F044603D3002343750020CF
:101000000DE00126084B46759847D02805EB0603EE
:1010100006D12361324629462046044B984770BDCD
:10102000002223616275EAE7000000000000000072
:1010300010B5084B04469847D62808D1064B012224
:10104000204621699847431C5842584110BD002052
:10105000FCE700BF000000000000000010B5084BD6
:1010600004469847D72808D1064B0122204621691B
:101070009847431C5842584110BD0020FCE700BF70
:10108000000000000000000038B50C4B04469847F3
:10109000C72811D12569022229462046084B9847C6
:1010A000013009D1074B0122294620469847A0F17B
:1010B0000C035842584138BD0020FCE700000000F6
:1010C000000000000000000010B5D0E901431B1B28
:1010D000B1EBA30F3DBF036854F82110D2180020D4
:1010E00038BF505C10BD000038B5037D04460D4686
:1010F0001BB1D0E90123934203D100236375002083
:1011000038BD9B1A0269B2EBA30FF6D2044B984785
:101110002870637D002BF2D02046024B9847EFE702
:10112000000000000000000070B5037D04460D467D
:101130001BB1D0E90123934203D100236375002042
:1011400070BD06699B1AB6EBA30FF6D20123437557
:101150000C4B9847C22806F101030FD123610022EE
:1011600031462046084B984700F001002870637D07
:10117000002BE4D02046054B9847E1E7002023618F
:101180006075F3E7000000000000000000000000B0
:101190002DE9F043037D04460E4685B01BB1D0E92E
:1011A0000123934205D100236375002005B0BDE8FB
:1011B000F08305699B1AB5EBA30FF4D20127464BC8
:1011C00047759847DA28454B6CD00BD8A02824D017
:1011D000D9284DD00022013541496275256101A809
:1011E00098472FE0DB28F5D13D4901A898473A46BA
:1011F000204621693B4B984700250746DFF8FC80D5
:10120000DFF8FC90AF4221691AD06A1D2046C04722
:10121000014601A8C8470135F4E7314901A89847BC
:10122000002220462169304B98470025DFF8CC800A
:10123000DFF8CC9000F01F07EBB29F4221690FD876
:1012400001312161294B01A930469847284B01A85B
:101250009847637D002BA8D02046264B9847A5E7EA
:1012600001352A462046C047014601A8C847E3E7A2
:101270001B4901A898473A46204621691A4B9847CE
:1012800000250746DFF87480DFF87490EBB2BB42AC
:101290002169D5D2AA1C2046C047014601A8C847EB
:1012A0000135F3E70E4901A898473A4620462169DF
:1012B000114B984700250746DFF84080DFF8409043
:1012C000ABB29F422169BBD9EA1C2046C047014608
:1012D00001A8C8470135F3E7000000000000000046
:1012E00004060000000000000000000000000000F4
:1012F00000000000000000000000000000000000EE
:10130000000000002DE9F041037D04460E461BB1AC
:10131000D0E90123934204D1002363750020BDE886
:10132000F08107699B1AB7EBA30FF5D20123437530
:101330001F4B984707F1010890B11E4B0222394616
:101340002046C4F81080984700231D46C6E90003D4
:10135000B560637D002BE1D02046174B9847DEE750
:101360002046164B984750B1154B0222394620466D
:10137000C4F8108098478D0801F00303E6E7204683
:10138000104B9847054670B103223946094B204659
:1013900098470B4B0546072239462046C4F8108073
:1013A00098470B46D2E703466075C4F81080CDE736
:1013B000000000000000000000000000000000002D
:1013C0000000000000000000F8B507460423174E97
:1013D000013B00D1FEE73568BD4202D1746820466A
:1013E000F8BD05BB3146124B41F8087B4FF48360D2
:1013F00098474FF4806204460E4B294640F8047B20
:1014000098474FF0FF330C4AC4F808341368C4F807
:1014100004540133C4F80C54C4F81054C4F81454E0
:1014200013607460DBE706F58466D1E70000000016
:1014300000000000000000000000000010B504469D
:10144000006818B1A168024B091A9847204610BDE0
:101450000000000010B50446064B00F59670984752
:10146000054B04F58C709847044B04F5867098473B
:10147000204610BD00000000000000000000000039
:101480002DE9F84F6FF06043D0E9008A1546AAEBCA
:101490000802B3EBA20F074689464FEAA20402D125
:1014A0002748284B9847C24514BF22460122A4185A
:1014B000A1EB080B2BD264B39C4228BF1C46224BE5
:1014C000A00098470646214B042006EB0B019847E5
:1014D0002B68BBF1000F03600BF10405AAEB090AAE
:1014E00019DD5A4641463046194B98477019BAF1F2
:1014F000000F00EB0A0503DD52464946154B98479D
:10150000B9684046144BA1EB0801984710E01C460F
:10151000D5E72646D7E7BAF1000F354404DD524639
:10152000494628460B4B98475544B8F1000FE7D180
:10153000C7E9006506EB8406BE60BDE8F88F00BF12
:101540000506000000000000000000000000000090
:101550000000000000000000000000002DE9F7433B
:10156000044616460025184FDFF86080DFF86090CB
:101570000160AE42A16801950FD8636851F8045C20
:10158000C91A891020460139B8472844831B58429C
:101590005841207503B0BDE8F083E3688B420ED05C
:1015A0000420C8470560A3680433A360D4E901316F
:1015B000C91A891020460139B8470544D9E71946A8
:1015C00001AA201DC047F1E7000000000000000054
:1015D0000000000010B504461046D4E900236FF067
:1015E00000449B1AE21A8A4201D2074B984799425B
:1015F00038BF19465B1804D2A34228BF23461846B9
:1016000010BD2046FCE700BF000000002DE9F047B8
:10161000D0E901739F4204468846DFF878A00AD0DB
:1016200039460120D04798F80030037063680133D1
:101630006360BDE8F087134A0121134B9847134BB1
:10164000266881469847B91B014405460120D047CA
:1016500098F80030394603702A46DFF83C8030465F
:10166000C0473946421C3846C047074626B1A168E4
:101670003046074B891B9847C4E900574D44A56085
:10168000D7E700BF050600000000000000000000D2
:101690000000000000000000000000002DE9F047FD
:1016A000D0E901739F4204468846DFF878A00AD04B
:1016B00039460120D04798F8003003706368013341
:1016C0006360BDE8F087134A0121134B9847134B21
:1016D000266881469847B91B014405460120D0473A
:1016E00098F80030394603702A46DFF83C803046CF
:1016F000C0473946421C3846C047074626B1A16854
:101700003046074B891B9847C4E900574D44A560F4
:10171000D7E700BF05060000000000000000000041
:101720000000000000000000000000002DE9F04370
:10173000037D05460F4685B01BB1D0E901239342D6
:1017400005D100236B75002005B0BDE8F083066964
:101750009B1AB6EBA30FF4D24FF001083A4B80F876
:1017600015809847C5284FF000042ED0C62848D0D1
:10177000C42861D1424631462846DFF8E480CDE9ED
:1017800001440394C0470646DFF8D890E3B29E4276
:1017900029690FD80131296138462C4B01A9984796
:1017A0002B4B01A898476B7D002BCCD02846294BAA
:1017B0009847C9E7A21C2846C0470DF103018DF8E0
:1017C000030001A8C8470134E0E7424631462846F5
:1017D000214BCDE90144039498470646DFF8808009
:1017E000DFF88090A3B2B3422969D3D2E21C284625
:1017F000C0470DF103018DF8030001A8C84701346B
:10180000F0E7424631462846144BCDE901440394A3
:1018100098470646DFF84880DFF84890A6422969D5
:10182000B8D0621D2846C0470DF103018DF80300B2
:1018300001A8C8470134F1E70136CDE901446C75D0
:101840002E610394A8E700BF000000000000000024
:101850000000000000000000000000000000000088
:10186000000000000000000007B5044B8DF80710D1
:101870000DF10701984703B05DF804FB000000007C
:1018800010B50446034BC0219847E3680133E36079
:1018900010BD00BF0000000037B504460D46074BE1
:1018A000CC2198472046064B0DF107018DF80750D3
:1018B0009847E3680133E36003B030BD00000000E7
:1018C000000000002DE9F047D0E901739F42044673
:1018D0008846DFF878A00AD039460120D04798F82A
:1018E00000300370636801336360BDE8F087134A1A
:1018F0000121134B9847134B266881469847B91B23
:10190000014405460120D04798F80030394603705D
:101910002A46DFF83C803046C0473946421C3846EC
:10192000C047074626B1A1683046074B891B984738
:10193000C4E900574D44A560D7E700BF0506000085
:101940000000000000000000000000000000000097
:1019500000000000F8B505460E460324034F311978
:101960002846B847013CFAD2F8BD00BF000000008D
:1019700013B504460191064BCE2198472046054BEE
:1019800001A99847E3680133E36002B010BD00BFCE
:10199000000000000000000070B505460C46044E33
:1019A0000131B047214628463346BDE8704018470C
:1019B000000000000F2913B504460BD861F06F0139
:1019C0008DF804100D4B01A99847E3680133E360DB
:1019D00002B010BDB1F5803F094B08D2ADF804103C
:1019E000DC2198472046074B01A99847EDE7019174
:1019F000DD2198472046044B01A9F6E700000000CE
:101A000000000000000000000000000013B50446C4
:101A1000ADF80610064BCD2198472046054B0DF139
:101A200006019847E3680133E36002B010BD00BFD0
:101A300000000000000000007E2913B504460AD80B
:101A40000D4B8DF807100DF107019847E36801333E
:101A5000E36002B010BDFF2903D8084BC9B2984714
:101A6000F7E7B1F5803F03D2054B89B29847F0E71D
:101A7000044B9847EDE700BF0000000000000000A5
:101A8000000000000000000073B50C1E054621DBBD
:101A90007E2C08DC8DF8044001A9234B9847EB68A5
:101AA0000133EB6008E0E317B4F5807F73F10002C7
:101AB00004D21E4BE1B2984702B070BDB4F5803F2E
:101AC00073F1000303D21A4BA1B29847F4E7194B04
:101AD0009847F1E714F11E0FDCDA14F1800F164B72
:101AE00006DBD021984728468DF8044001A9D4E7A9
:101AF00014F5004F114E0BDBD121ADF8044098478F
:101B000028460DF10501B047284601A9B047C6E7B0
:101B10000194D2219847032401AB19192846B047F4
:101B2000013CF9D2BBE700BF00000000000000004C
:101B300000000000000000000000000000000000A5
:101B40002DE9F84F04460D46DFF88CA001EB020B9F
:101B5000AB4501D1BDE8F88FD4E90183984509D0A0
:101B600041460120D0472B780370636801336360DE
:101B70000135EDE7134A0121134B20469847134BDB
:101B8000276881469847A8EB0701014406460120D3
:101B9000D0472B784146037032460D4B3846984764
:101BA0004146421C0A4B40469847804627B1A168EF
:101BB0003846084BC91B9847C4E900684E44A660E4
:101BC000D6E700BF0506000000000000000000008E
:101BD000000000000000000000000000F7B58D6864
:101BE00004461F2D0F68174E0FD865F05F038DF860
:101BF000043001A9144B98472A4639462046B0477D
:101C0000E3680133E36003B0F0BDFF2D0F4B06D84E
:101C1000D921984720468DF8045001A9EAE7B5F587
:101C2000803F08D2DA2198472046094BADF804508E
:101C300001A99847E0E7DB2198472046054B01952D
:101C400001A9F6E70000000000000000000000000D
:101C5000000000000000000070B5044616461D4656
:101C6000074B984720463168064B9847204629681D
:101C7000054B984720460499044B984770BD00BF18
:101C80000000000000000000000000000000000054
:101C900038B50C4605460221074B984754F8041BFB
:101CA0002846064B984728462146054B9847284624
:101CB000044B984738BD00BF000000000000000042
:101CC00000000000000000002DE9F043474B814672
:101CD0008DB008460E4615469847DFF85C81444CA7
:101CE000A8B9444905A8C047FD2305A9089309A838
:101CF000414B984705A8A0472846404B08A998475C
:101D000009A8A047002738460DB0BDE8F08300279A
:101D10003B4B304601A901979847019B012B01D805
:101D20003849DFE7022B01D03749DBE737498DF827
:101D3000207009A8C0473046354B98470746002811
:101D40002AD0344B09A9304698473046324B984741
:101D5000C22847D1314B08A930469847304B09A9D2
:101D600005A898479DF820308DF80830D9F80C3038
:101D70000BB92C4B9847D9F8103002AA05A909F1E4
:101D80000400984705A8A047274E2846B047284694
:101D9000B04709A8A047B6E74FF0FF3609A8A0470B
:101DA000224902A8C0470A22F143214B08A89847BC
:101DB000204B08A902A8984708A8A047184B02A9D9
:101DC00005A89847FD2305A9089309A80A4B984739
:101DD00005A8A0472846094B08A9984709A8A04785
:101DE00002A88EE76FF00106D8E700BF00000000F0
:101DF000000000001F0600000000000000000000BE
:101E0000000000003F0600008E06000004060000EF
:101E100000000000000000000000000000000000C2
:101E2000000000000000000000000000A20600000A
:101E30000000000000000000000000002DE9F0415B
:101E4000384B07468CB008460D4614469847064660
:101E5000B8B93549354B05A89847FD2305A908931E
:101E600009A8334B9847334D05A8A8472046324B65
:101E700008A9984709A8A847002630460CB0BDE835
:101E8000F0814FF000082D4B284601A9CDF80480C1
:101E90009847019B0BB92A49DCE7012B01D029495E
:101EA000D8E72846284B8DF814809847C22823D0BD
:101EB00026491E4B02A898470A224146244B08A8EF
:101EC0009847244B08A902A898471A4D08A8A84784
:101ED000214B02A905A89847FD2305A9089309A845
:101EE000134B984705A8A8472046134B08A99847C5
:101EF00009A8A84702A8BEE7184B284605A9984795
:101F00009DF814308DF82030FB680BB9144B9847BE
:101F10003B6908A9381D9847124D2046A84720461E
:101F2000A847AAE7000000001F060000000000000C
:101F300000000000000000000000000000000000A1
:101F40003F0600008E06000000000000A206000010
:101F50000000000000000000000000000000000081
:101F6000000000000000000038B50569D0E9012339
:101F70009B1AB5EBA30F044603D30023437500203F
:101F80001CE001234375214B984728B300F134032B
:101F9000DBB2142B35D8CC38142832D8DFE800F067
:101FA0001F22252B0F1215183131313131313131CA
:101FB000313131310B002046154B984738BD204652
:101FC000144BFAE72046144BF7E72046134BF4E78F
:101FD0002046134B9847F1E72046124BEDE7204689
:101FE000114BEAE72046114BE7E72046104B984794
:101FF00020EAE070E2E720460E4B98470029DDDA40
:10200000BDE70023013563752561B8E700000000D6
:1020100000000000000000000000000000000000C0
:1020200000000000000000000000000000000000B0
:10203000000000000000000038B5037D04460D4696
:102040001BB1D0E90123934203D100236375002023
:1020500038BD9B1A0269B2EBA30FF6D2044B984726
:102060002860637D002BF2D02046024B9847EFE7B3
:10207000000000000000000038B50569D0E9012328
:102080009B1AB5EBA30F044604D3002343759FEDC1
:102090002F0A21E0012343752D4B9847A8B100F189
:1020A0003603DBB2162B4BD8CA38162848D8DFE8DF
:1020B00000F03B3F14171A1D2D3033364747474772
:1020C000474747474747474725002046214B984702
:1020D00000EE100AB8EE400A38BD20461E4BF6E767
:1020E00020461E4BF3E720461D4BF0E71D4B2046D4
:1020F00098471D4B984700EE100AEDE720461B4B12
:10210000984700EE100AB8EEC00AE5E72046184BE3
:10211000F6E72046174BF3E72046174BF0E7174B3F
:1021200020469847164BE5E72046164B9847D3E7DD
:102130002046154B9847154B51EC100B9847DAE7A2
:102140000023013563752561A1E700BF0000000091
:10215000000000000000000000000000000000007F
:10216000000000000000000000000000000000006F
:10217000000000000000000000000000000000005F
:10218000000000000000000000000000000000004F
:1021900038B50569D0E901239B1AB5EBA30F0446B6
:1021A00004D3002343759FED2C0B21E001234375DD
:1021B0002B4B9847A8B100F13603DBB2162B46D85B
:1021C000CA38162843D8DFE800F0363E14171A1D27
:1021D000282B2E3142424242424242424242424235
:1021E000230020461F4B98471F4B984741EC100B8C
:1021F00038BD20461D4BF6E720461D4BF3E7204631
:102200001C4BF0E71C4B204698471C4B9847EDE7CA
:1022100020461B4B98471B4BE7E720461A4BF9E734
:1022200020461A4BF6E72046194BF3E7194B204698
:102230009847194BEAE72046184B9847184B10EE81
:10224000100A9847D2E72046164B9847D0E700235C
:10225000013563752561A6E700000000000000005D
:10226000000000000000000000000000000000006E
:10227000000000000000000000000000000000005E
:10228000000000000000000000000000000000004E
:10229000000000000000000000000000000000003E
:1022A000000000000000000070B5037D04460E46EB
:1022B00015461BB1D0E90123934203D10023637576
:1022C000002070BD9B1A0269B2EBA30FF6D2054B3A
:1022D00098473060637D002BF2D029462046024BA0
:1022E0009847EEE70000000000000000F8B5064641
:1022F0000F4615460024AC4201D32046F8BD306895
:102300002A1B036839199B6898470444F3E70000C7
:102310002DE9F041044600201D4688B0D4F8107421
:10232000CDE90300CDE905000790009102AB04213F
:1023300004A81646DFF8588003AA0297C047012177
:102340000F4B04A8984729460E4B04A89847DDE98F
:1023500004156D1A2A4620460B4B984785420B4AB6
:1023600004D004A8904708B0BDE8F081D4F8103438
:1023700004A80133C4F8103490473760F3E700BF76
:10238000000000000000000000000000000000004D
:10239000000000002DE9F0410025044688B0D0F887
:1023A000107402AB009104A804211646DFF8548093
:1023B00003AACDE90355CDE9055507950297C04716
:1023C00029460D4B04A89847DDE904156D1A2A46E5
:1023D00020460A4B98478542094A04D004A89047F2
:1023E00008B0BDE8F081D4F8103404A80133C4F873
:1023F000103490473760F3E7000000000000000051
:1024000000000000000000002DE9F041044600201B
:102410001D4688B0D4F81074CDE90300CDE905005D
:102420000790009102AB042104A81646DFF85880FB
:1024300003AA0297C04701210F4B04A898472968B7
:102440000E4B04A89847DDE904156D1A2A4620466C
:102450000B4B984785420B4A04D004A8904708B01C
:10246000BDE8F081D4F8103404A80133C4F8103466
:1024700090473760F3E700BF000000000000000055
:1024800000000000000000000000000008B5D1F8C6
:1024900004315A1C09D0D1E946128A4205D0022BD8
:1024A00003D00068014B521A984708BD0000000095
:1024B00003460846D3F8041430B514188C4210D8DB
:1024C00050B16FF003050432091A1A44ED1AAC1822
:1024D000A14202D8C3F8041430BD145C02F8014BC9
:1024E000F5E70020F8E7000010B5094B0022D0F80E
:1024F0000C14044698474FF0FF33C4F80834002307
:10250000C4F80C34D4F814340133C4F8143410BDB6
:10251000000000002DE9F041037D04460D461646FB
:102520001BB1D0E90123934203D10023637500203E
:102530002AE09B1A02694FEAA308B2EBA30FF4D278
:10254000124A134F136813F0010302BF3B600123CB
:102550001360104B9847637D3860002BE7D02369E8
:102560009845E2D90C4B204698472860637D002BA4
:10257000DDD00A4B2046291D9847637D002BD6D01D
:1025800031462046064B9847BDE8F0810000000028
:10259000000000000000000000000000000000003B
:1025A000000000002DE9F04105460E4600241C27DE
:1025B000DFF82080D5F8F03AA34202D80020BDE829
:1025C000F081314607FB0450C0470028F7D10134A1
:1025D000F0E700BF0000000038B50569D0E901232D
:1025E0009B1AB5EBA30F044603D3002343750020C9
:1025F00013E001234375124B984758B100F134039F
:10260000DBB2032B17D8CD38022807D8DFE800F05B
:10261000090C0F0020460B4B984738BD20460A4B4B
:10262000FAE72046094BF7E72046094BF4E7204636
:10263000084B9847F1E70023013563752561D6E71C
:10264000000000000000000000000000000000008A
:10265000000000000000000070B5037D04460E4637
:1026600015461BB1D0E90123934203D100236375C2
:10267000002070BD9B1A0269B2EBA30FF6D2054B86
:1026800098473060637D002BF2D029462046024BEC
:102690009847EEE700000000000000002DE9F0413F
:1026A000D1F80C740446032F0D462A4E8CB006D880
:1026B00020462949B04720460CB0BDE8F081D1F84A
:1026C000083433F00208F3D1244B06A89847244B72
:1026D00006A898473A46234B291D06A8984748B9AB
:1026E0002846214B984720461B49B0471F4B07A857
:1026F0009847E0E7184903A8B0476A461C4B01A970
:1027000006A8CDF80480984748B92846164B984744
:1027100020461149B047174B03A89847E6E7009BAE
:1027200073B9019B042BF0D1134B03AA02A906A88D
:1027300098470028E9D02046104B03A99847EAE7BC
:10274000022BE2D1019B032BDFD10D4B03A906A87D
:102750009847EEE7000000000406000000000000BB
:102760000000000000000000000000000000000069
:102770000000000000000000000000000000000059
:1027800000000000F0B5D0F80051044687B01DB934
:102790000025284607B0F0BD00F5947630461E4B64
:1027A00098472A46214630461C4B98470028EFD0D0
:1027B0001B491C4B03A8984700236A4602933046E6
:1027C000194B02A99847054620B90025174B03A8C5
:1027D0009847DEE7009FA7B9029B042BF5D130464E
:1027E000134B03AA01A998470028EED0114B03A967
:1027F00004F586709847019BC4F80471C4F8083149
:10280000E4E7022FE1D1029B032BDED130460A4BD5
:1028100003A99847E8E700BF00000000000000009F
:10282000040600000000000000000000000000009E
:102830000000000000000000000000002DE9F0474B
:10284000374B064688B008460C46984704F586780C
:1028500004F59477C0B94FF0FF333249C4E94130F1
:10286000C4F80001304B40469847304B38469847F3
:10287000D4E94632934218BFC4F81C310023C4F88F
:10288000243108B0BDE8F087D4E94632934218BF3E
:10289000C4F81C310023C4F82431D4F8043104F501
:1028A0008C7563B904212846214B9847012128469D
:1028B000204B98472846D4F808111F4B984700240E
:1028C000DFF888A006F10409D6F8F43A41469C42A4
:1028D00012D31A4B01A89847FE2301A9049305A817
:1028E000174B98472846174B04A99847164C05A83C
:1028F000A04701A8A047C4E74846D04709F11C09F2
:1029000058B11C232A46394603FB0464E069036876
:102910009B6808B0BDE8F04718470134D4E700BF12
:10292000000000000406000000000000000000009D
:102930000000000000000000000000000000000097
:102940000000000000000000000000000000000087
:102950000022C0E900228260704700002DE9FF419B
:102960000646174B1420984700250446DFF8688078
:102970006846CDE900550295C0476946114B0420D1
:1029800003959847066026460F4B104F0393104B54
:10299000029746F8043B30466560C6E90155C047DA
:1029A0000222694630462561B847039B6846236189
:1029B000029BE360074B9847204604B0BDE8F081D6
:1029C0000000000000000000000000000000000007
:1029D0000800000000000000000000002DE9FF4199
:1029E0000646174B1420984700250446DFF86880F8
:1029F0006846CDE900550295C0476946114B042051
:102A000003959847066026460F4B104F0393104BD3
:102A1000029746F8043B30466560C6E90155C04759
:102A20000222694630462561B847039B6846236108
:102A3000029BE360074B9847204604B0BDE8F08155
:102A40000000000000000000000000000000000086
:102A50000800000000000000000000002DE9FF4118
:102A60000646174B1420984700250446DFF8688077
:102A70006846CDE900550295C0476946114B0420D0
:102A800003959847066026460F4B104F0393104B53
:102A9000029746F8043B30466560C6E90155C047D9
:102AA0000222694630462561B847039B6846236188
:102AB000029BE360074B9847204604B0BDE8F081D5
:102AC0000000000000000000000000000000000006
:102AD0000800000000000000000000002DE9FF4198
:102AE0000646174B1420984700250446DFF86880F7
:102AF0006846CDE900550295C0476946114B042050
:102B000003959847066026460F4B104F0393104BD2
:102B1000029746F8043B30466560C6E90155C04758
:102B20000222694630462561B847039B6846236107
:102B3000029BE360074B9847204604B0BDE8F08154
:102B40000000000000000000000000000000000085
:102B50000800000000000000000000002DE9FF4117
:102B60000646174B1420984700250446DFF8688076
:102B70006846CDE900550295C0476946114B0420CF
:102B800003959847066026460F4B104F0393104B52
:102B9000029746F8043B30466560C6E90155C047D8
:102BA0000222694630462561B847039B6846236187
:102BB000029BE360074B9847204604B0BDE8F081D4
:102BC0000000000000000000000000000000000005
:102BD00008000000000000000000000038B5037D80
:102BE00004460D461BB1D0E90123934203D10023D3
:102BF0006375002038BD9B1A0269B2EBA30FF6D2B1
:102C0000044B98472860637D002BF2D02046024B8E
:102C10009847EFE700000000000000002DE9F041B8
:102C20001E46037D0446884617461BB1D0E9013590
:102C30009D4204D1002363750020BDE8F081ED1AA8
:102C40000369B3EBA50FF5D20F4B9847C8F8000006
:102C5000637D002BF0D0237D002BEBD0D4E9013035
:102C60008342E7D0C01A2369B3EBA00FE2D2074B2F
:102C7000204698473860637D002BDDD031462046E2
:102C8000034B9847D9E700BF000000000000000098
:102C9000000000002DE9F043D0F80C640546032E37
:102CA000884617461C468BB040F28680D0F8083420
:102CB000012B40F08180414B04A89847404B04A869
:102CC000984732463F4B291D04A8984738B900263B
:102CD0003D4B05A8984730460BB0BDE8F0834FF058
:102CE00000093A4E03AB02AA01A904A8CDF804904A
:102CF000B04706460028EAD0039B4345E7D1029B34
:102D0000012B0AD02046FC23314940F8043B314BCB
:102D100098472846304B9847DAE7019B042B05D0AB
:102D20002046FC232D4940F8043BF0E72C4B04A837
:102D30008DF800909847C02831D19DF824301BB100
:102D4000DDE905239A4208D100238DF8253020467D
:102D5000FC23244940F8043BD9E79B1A089AB2EBBC
:102D6000A30FF1D2204B04A898479DF825308DF889
:102D70000000002BEBD039461C4B04A898470028D4
:102D8000E5D01B4B00222846D5F80C1498474FF08D
:102D9000FF33C5F808340023C5F80C3498E76A46B9
:102DA0002146144B04A898470028EAD12046FC236A
:102DB000114940F8043BAAE700268CE70000000018
:102DC0000000000000000000000000000000000003
:102DD000C50600000000000000000000DE06000044
:102DE00000000000FB0600000000000000000000E2
:102DF00000000000000000001C0700002DE9F04367
:102E0000D0F80C640546032E884617461C468BB046
:102E100040F28680D0F80834012B40F08180414B8D
:102E200004A89847404B04A8984732463F4B291DB9
:102E300004A8984738B900263D4B05A89847304666
:102E40000BB0BDE8F0834FF000093A4E03AB02AA85
:102E500001A904A8CDF80490B04706460028EAD09E
:102E6000039B4345E7D1029B012B0AD02046FC235C
:102E7000314940F8043B314B98472846304B98473E
:102E8000DAE7019B042B05D02046FC232D4940F8AE
:102E9000043BF0E72C4B04A88DF800909847C0281D
:102EA00031D19DF824301BB1DDE905239A4208D1C8
:102EB00000238DF825302046FC23244940F8043BAC
:102EC000D9E79B1A089AB2EBA30FF1D2204B04A8C2
:102ED00098479DF825308DF80000002BEBD039463F
:102EE0001C4B04A898470028E5D01B4B002228461D
:102EF000D5F80C1498474FF0FF33C5F80834002379
:102F0000C5F80C3498E76A462146144B04A8984744
:102F10000028EAD12046FC23114940F8043BAAE7E7
:102F200000268CE700000000000000000000000008
:102F30000000000000000000C506000000000000C6
:102F400000000000DE06000000000000FB0600009C
:102F50000000000000000000000000000000000071
:102F60001C07000038B50C1A134605D0014622464E
:102F70001846024DA8470346181938BD0000000046
:102F800038B50C1A134605D0014622461846024DA4
:102F9000A8470346181938BD000000002DE9F74F77
:102FA0009846002308F1010A9A45044689461746C7
:102FB000C0E90033836002DA2F48304B984713D0C2
:102FC0002F4B5046984726680546024661683046B2
:102FD0002C4B984726B1A16830462B4B891B98474C
:102FE000C4E900555544A5602046284B0DF1070162
:102FF00007EB080B8DF807909847BB4516D0D4E92E
:1030000001639B1B9845DFF890A0DFF8909011D8E2
:10301000324659463846D04762683146424462607B
:103020003046C847324639463846D047204603B076
:10303000BDE8F08F4146164A164B20469847104B84
:10304000804698473146024605462068C84759469B
:1030500002463846D047616802463046C8470646B1
:10306000206818B1A168084B091A9847C4E90056AE
:103070004544A560DAE700BF4007000000000000FB
:103080000000000000000000000000000000000040
:1030900050070000000000000000000000000000D9
:1030A0002DE9F8430D69D1E901239B1AB5EBA30F74
:1030B00006460C4605D300234B75C6E90033B360C2
:1030C00026E0012308464B754C4B9847C7386F1CC8
:1030D000112800F28F80DFE800F05A6F7E8D8D8D11
:1030E0008D8D8D8D8D8D8D091E2D3C4B0122294698
:1030F000434B204698470222424B804629462046B1
:103100002761984701230246414630463E4CA0477E
:103110003046BDE8F88301222946394B20469847BE
:103120000222384B804629462046276198470223D1
:103130000246E9E701222946314B20469847022200
:10314000304B804629462046276198470423024693
:10315000DAE7012229462A4B204698470222294BCA
:103160008046294620462761984708230246CBE738
:1031700001222946224B204698470222214B8046B5
:10318000294620462761984710230246BCE70122C2
:1031900029461E4B20469847022281462946204652
:1031A000174B9847032280462761164B2946204635
:1031B00098474B460246A7E701222946144B204672
:1031C000984703228146294620460D4B9847042202
:1031D00080462761E9E7012229460E4B20469847A1
:1031E0000522814629462046054B984706228046FF
:1031F0002761DAE70023276163755EE700000000BE
:1032000000000000000000000000000000000000BE
:1032100000000000000000002DE9FF47764B044647
:103220009847C028064604D120467449744B9847F5
:1032300031E0C22803D120467249734BF7E720469C
:10324000724B984720B92046714B9847054618B1F4
:1032500020467049704BEAE7CA2E1ED1237D1BB170
:10326000D4E901239A4205D100236375284604B0AE
:10327000BDE8F0879B1A2269B2EBA30FF4D2674B2B
:1032800020469847664B83ED000A637D002BEDD006
:103290002046644B98470546E8E7CB2E12D1237DA4
:1032A000002BE1D0D4E901239A42DDD09B1A226998
:1032B000B2EBA30FD8D25C4B204698475B4B83ED13
:1032C000000BE2E720465A4B9847074680B1594D1C
:1032D0002B68DB0708D4584B5849594898470123B5
:1032E00058482B60584B984720465549574B9EE706
:1032F00006F13C03DBB2022B15D92046544B98470C
:10330000804660B32046534B019701A998473E463B
:10331000DFF88C91DFF88CA1019BC9F800709E4208
:1033200013D34546A2E74C490B6813F0010308D1BB
:103330004A4A4B48C2E90033936001230B60424B79
:10334000984720464549474B71E72046D0470546F8
:1033500000288BD0D9F8007001360137DCE7204611
:10336000414B984718B120464049414B5FE706F171
:103370002C03DBB2042B15D93936F6B2022E11D943
:1033800020463C4B984748B920463B4B984728B9C4
:1033900020463A4B984700283FF468AF204638490A
:1033A000384B44E738490B6813F0010308D1374A1A
:1033B0003748C2E90033936001230B60224B9847E2
:1033C000237D002B3FF450AFD4E901239A423FF410
:1033D0004BAF9B1A2269B2EBA30FBFF445AF214656
:1033E00001A82C4B984729482B4B01A998472B4BF8
:1033F00001A8984749E700BF000000000000000056
:1034000000000000000000000000000000000000BC
:1034100000000000000000000000000000000000AC
:10342000000000000000000000000000000000009C
:103430000000000000000000000000000406000082
:10344000000000000000000000000000000000007C
:10345000000000000000000000000000000000006C
:10346000000000000000000000000000000000005C
:10347000000000000000000000000000000000004C
:10348000000000000000000000000000000000003C
:10349000000000000000000000000000000000002C
:1034A00000000000000000002DE9F04FD0F80C34BF
:1034B0000446032B89B04FD82E4B02A8984700260C
:1034C0002D4FDFF8D080DFF8D090D4F80434B34229
:1034D0003FD902A80136B8473246211D02A8C0478D
:1034E0000028F2D002A8C8470028EED00023694681
:1034F000009302A8214B9847009DD5B1204B02A80C
:10350000984718B91F4B02A8984740B31E4B01A912
:1035100002A89847012DDDF804A00AD00125DFF8A4
:103520007CB002A8D8470028CFD0009B01359D422F
:10353000F7D3BAF1020F02D815D0042D15D0134BD2
:103540000022314620469847D4F814340133C4F899
:1035500014340F4B03A8984709B0BDE8F08F054617
:103560006FF0010ADBE7032DE8E7C4F808A4C4F80C
:103570000C64EEE700000000000000000000000006
:10358000000000000000000000000000000000003B
:10359000000000000000000000000000000000002B
:1035A00038B50446006803685B69984790B1D4F861
:1035B0000434B3F5806F0DD0214651F8040B026836
:1035C0001944D568C3F58062A847D4F8043403448D
:1035D000C4F804342046014B984738BD0000000071
:1035E0002DE9F043064685B00068274B90460D460E
:1035F00098473168254B01A898472549254B01A8D4
:103600009847044630B9DFF89890371DD6F8F43A59
:103610009C4207D30024204B01A89847204605B0C0
:10362000BDE8F083384601A9C84710B901341C37FA
:10363000ECE7414607F10C00C8470028F6D0306897
:10364000D0F8083433F002031CD1D0F80C140A1F50
:10365000FC2A17D82B46C21C4C1912F8016F03F82C
:10366000016BA342F9D14FF0FF330022C0F80834B8
:10367000C0F80C24094B9847041E18BF0124C5F854
:103680000001C8E70020F7E700000000000000008C
:103690000406000000000000000000000000000020
:1036A000000000002DE9F04100F110060446D4B0FE
:1036B000642200233046DFF89880C047C8B9194B10
:1036C00004A8984765681849184B01A898472846E8
:1036D000174B01AA04A998470746164B01A898471B
:1036E000154D304647B9A847144B9847144B04A8CA
:1036F000984754B0BDE8F081A8476068114B04A911
:103700009847114F04F12406642200233046C04735
:1037100030B960680D4B04A998473046A847E5E7E3
:10372000B847F1E700000000680700000000000053
:103730000000000000000000000000000000000089
:103740000000000000000000000000000000000079
:103750000000000008B5044B9847044890F8383141
:103760000BB1034B984708BD0000000000000000AB
:10377000000000002DE9F04100F110060446D4B02D
:10378000642200233046DFF89880C047C8B9194B3F
:1037900004A8984765681849184B01A89847284617
:1037A000174B01AA04A998470746164B01A898474A
:1037B000154D304647B9A847144B9847144B04A8F9
:1037C000984754B0BDE8F081A8476068114B04A940
:1037D0009847114F04F12406642200233046C04765
:1037E00030B960680D4B04A998473046A847E5E713
:1037F000B847F1E7000000000406000000000000E8
:1038000000000000000000000000000000000000B8
:1038100000000000000000000000000000000000A8
:103820000000000008B5054C054E064D94F83831EF
:103830000BB12046B047A847F8E700BF00000000E2
:103840000000000000000000F8B50E4604461746D0
:103850001D460068094B984731462B46084E3A46AC
:103860002068B047064638B1294651F8043B44F871
:10387000043F201D034B98473046F8BD0000000070
:10388000000000000000000000232DE9F7438DF840
:103890000430037D044633BB1C4E1D4D64220023BF
:1038A000E06AB04748BB606A236B0068194D04F1B9
:1038B000100204F11801A847E06A174DA847144FF9
:1038C000DFF85C80DFF85C9064220023A06AB047D8
:1038D000C8B923462169606A01AAC04778B1A06AC5
:1038E000A847012323750D4D04F11800A847201D9A
:1038F000A847204603B0BDE8F083A847CEE7A06AFA
:10390000A847C847E0E7B847DEE700BF000000006F
:1039100000000000000000000000000000000000A7
:103920000000000000000000F8B50E4604461746EF
:103930001D460068094B984731462B46084E3A46CB
:103940002068B047064638B1294651F8043B44F890
:10395000043F201D034B98473046F8BD000000008F
:1039600000000000000000002DE9F047037D044640
:103970000E463BBB1A4F1B4D64220023E06AB8473A
:1039800030BB606A236B0068174D04F1100204F12C
:103990001801A847E06A154DA847DFF84880DFF80E
:1039A0005090DFF850A064220023A06AB847A8B95D
:1039B000234632462169606AC84758B1A06AA847C1
:1039C000012323752068B0FA80F04009BDE8F08734
:1039D000A847D1E7A06AA847D047E4E7C047E2E795
:1039E00000000000000000000000000000000000D7
:1039F00000000000000000002DE9F04F1725A64C44
:103A0000A64EA3B0013D4FF0010140F04883A44C05
:103A10003220A04701213320A04701213420A047B4
:103A200001213520A04701213620A0470121372060
:103A3000A0479C4C9C4B98474FF4FA609B4B98478F
:103A4000A0684FF4E1310368DFF8BC82DB69984776
:103A50000820C047A368964AE060C0E90023954E5D
:103A600004F11000B04704F12400B0471420C0470F
:103A70000646DFF89892E068C847334643F8040BDF
:103A800018468D4FB84740F6F8202660C04780465C
:103A9000E068C847464646F8040B294640F6F4223B
:103AA0003046864B9847DFF85492854D08F6F42A45
:103AB00049463046A84706F10C0049461C36A8473F
:103AC0005645F5D10026C4F80480C8F8F46A7D4B49
:103AD00031464FF4FA7098470146E0630022002314
:103AE000CDE9062305234FF4FA72CDE90263DFF82E
:103AF0002082754BCDE9006674480496C04774492E
:103B0000A06312A8A84715A8D4F80080B847714B45
:103B100019968DF8686012A91BA898476E4BCDF8CE
:103B200078801F93143320939DF86830002B2CD19C
:103B3000DFF8E081694E642200232098C047002806
:103B400040F0B1821E9B19AA18681BA9644B9847C4
:103B5000644E2098B047DFF88491DFF8BCA1DFF80D
:103B6000BCB1642200231F98C047002840F0A18206
:103B700019991E9815AB0FAAD047002800F095821E
:103B80001F98B04701238DF8683000238DF830303E
:103B90009DF86830002B2CD1DFF878814F4E6422DD
:103BA00000232098C047002840F085821E9B19AA58
:103BB00018681BA94A4B98474A4E2098B047DFF82F
:103BC0001C91DFF85CA1DFF854B1642200231F9838
:103BD000C047002840F0758219991E9815AB0CAAB1
:103BE000D047002800F069821F98B04701238DF864
:103BF00068303D4E1BA8B04716A8B04712A8B04782
:103C00009DF83C3013B1012384F838310DF1240ABA
:103C100036495046A847364912A8A84715A826682D
:103C2000B847002312A919938DF86830DFF8A490E3
:103C30001BA8C847284B1E961F931433CDE9203A82
:103C40000DF123012B4B15A8984706462A4B15A8C2
:103C50009847DFF8948012A8C047002E7AD02749F1
:103C60000CA86668A84751460FA8C8470CA912A817
:103C7000C847D6F8F43A632B66D8214B0FA9301DFC
:103C80009847002860D10FA915A8C84712A918A8FD
:103C9000C8471C4B46E000BF180A000000000000A7
:103CA0000000000000000000000000000000000014
:103CB00008000000000000000000000000000000FC
:103CC00000000000000000000000000040000000B4
:103CD000710700000000000010000000000000005C
:103CE0000000000000000000000000007907000054
:103CF000890700000000000000000000040600002A
:103D000000000000000000000000000000000000B3
:103D100000000000000000000000000000000000A3
:103D200000000000954898471B90D6F8F40A944B81
:103D3000421CC6F8F42A1C2202FB006015A90430BC
:103D40009847904B15A8984712A8C0470FA8C0479E
:103D50000CA8C0470DF1240A5046C0478A49504676
:103D6000A8478A4912A8A84715A82668B84700237B
:103D700012A919938DF86830DFF848921BA8C8473C
:103D8000834B0DF123011F931433CDE9203A1E9686
:103D9000804B15A8984706467F4B15A8984712A850
:103DA000C047DFF82482002E31D07C490CA8666819
:103DB000A84751460FA8C8470CA912A8C847D6F86B
:103DC000F43A632B1DD8764B0FA9301D9847C0B924
:103DD0000FA915A8C84712A918A8C847714B72485F
:103DE00098471B90D6F8F40A654B421CC6F8F42A93
:103DF0001C2202FB006015A904309847614B15A8EE
:103E0000984712A8C0470FA8C0470CA8C0470DF19B
:103E1000240A5046C04765495046A8475B4912A846
:103E2000A84715A82668B847002312A919938DF84A
:103E30006830DFF890911BA8C847554B0DF123015E
:103E40001F931433CDE9203A1E96524B15A898477C
:103E50000646514B15A8984712A8C047DFF868815D
:103E6000002E31D04D490CA86668A84751460FA8CE
:103E7000C8470CA912A8C847D6F8F43A632B1DD836
:103E8000474B0FA9301D9847C0B90FA915A8C847BF
:103E900012A918A8C847464B464898471B90D6F821
:103EA000F40A374B421CC6F8F42A1C2202FB0060BD
:103EB00015A904309847334B15A8984712A8C04756
:103EC0000FA8C0470CA8C0470DF1240A5046C047B0
:103ED00039495046A8472D4912A8A84715A8266871
:103EE000B847002312A919938DF86830DFF8D490F1
:103EF0001BA8C847264B0DF123011F931433CDE9AE
:103F0000203A1E96234B15A898470646224B15A823
:103F1000984712A8C047DFF8B080002E5CD01F4938
:103F20000CA86668A84751460FA8C8470CA912A854
:103F3000C847D6F8F43A632B48D8194B0FA9301D5F
:103F40009847002842D10FA915A8C84712A918A858
:103F5000C8471A4B1A4898471B90D6F8F40A084BE2
:103F6000421CC6F8F42A1C2202FB006015A904308A
:103F70009847044B15A8984728E000BF00000000B0
:103F80000000000000000000940700008907000006
:103F90001000000000000000000000000406000007
:103FA000000000000000000000000000A407000066
:103FB0000000000000000000B70700000000000043
:103FC00000000000000000000000000012A8C04730
:103FD0000FA8C0470CA8C04709AE3046C0473A49B1
:103FE0003046A847394912A8A84715A8D4F8009028
:103FF000B847002312A919938DF86830344F1BA8D5
:10400000B847344B0DF123011F931433CDE920360B
:10401000CDF87890304B15A8984781462F4B15A8BE
:10402000984712A8C047DFF8D080B9F1000F31D00F
:104030002B490CA86468A84731460FA8B8470CA9BB
:1040400012A8B847D4F8F43A632B1DD8254B0FA912
:10405000201D9847C0B90FA915A8B84712A918A8DC
:10406000B847214B214898471B90D4F8F40A204BBD
:10407000421CC4F8F42A1C2202FB004015A904309B
:1040800098471C4B15A8984712A8C0470FA8C047CF
:104090000CA8C0473046C04723B0BDE8F08F207958
:1040A000B0470834AEE4B04745E51F98B047D8475D
:1040B00057E5C84755E5B04771E51F98B047D84761
:1040C00083E5C84781E500BFC207000089070000FB
:1040D00000000000100000000000000000000000D0
:1040E00004060000000000000000000000000000C6
:1040F0000000000000000000000000002DE9F8436F
:104100001A4B04460F469847064618B90026304613
:10411000BDE8F883237D1BB1D4E901239A4215D170
:104120000025657500239846DFF84C90A8453B6054
:10413000EDD02046C8470028E8D02046C8470028D0
:10414000E4D03B6808F101080133EFE79B1A2269CC
:10415000B2EBA30FE4D2064B20469847637D054699
:10416000002BDFD02046034B9847DBE70000000020
:1041700000000000000000000000000038B5074B00
:1041800004460D46984728B129462046044B9847D7
:10419000002038BD4FF0FF30FBE700BF00000000FB
:1041A000000000002DE9F0473A4B07468CB0084666
:1041B000894615469847DFF818810646364CA8B957
:1041C000364905A8C047FD2305A9089309A8344B23
:1041D000984705A8A0472846324B08A9984709A840
:1041E000A047002630460CB0BDE8F08700234846C3
:1041F000019301A92C4B9847019B0BB92B49E0E790
:10420000012B01D02A49DCE72A4905A8C0474846C6
:10421000294B05A99847B0F10009DFF8B8A023DAC7
:1042200005A8A047254902A8C0470A226FEA09014C
:10423000234B08A89847234B08A902A8984708A829
:10424000A04702A905A8D047FD2305A9089309A8FE
:10425000134B984705A8A0472846124B08A9984732
:1042600009A8A04702A8BBE705A908A8D047FB6892
:104270000BB9154B98473B6908A9381D984708A802
:10428000A047124F2846B8472846B84705A8A04778
:10429000A8E700BF00000000000000001F060000AB
:1042A0000000000000000000000000003F060000C9
:1042B0008E0600000406000000000000A2060000B8
:1042C00000000000000000000000000000000000EE
:1042D00000000000000000002DE9F0473B4B0746BE
:1042E0008CB00846894615469847DFF82081064677
:1042F000374CA8B9374905A8C047FD2305A908933D
:1043000009A8354B984705A8A0472846334B08A96C
:10431000984709A8A047002630460CB0BDE8F087B2
:1043200000234846019301A92D4B9847019B0BB9E7
:104330002C49E0E7012B01D02B49DCE72B4905A8EC
:10434000C04748462A4B05A99847B0F10009DFF855
:10435000C0A023DA05A8A047264902A8C0470A2220
:104360006FEA0901244B08A89847244B08A902A822
:10437000984708A8A04702A905A8D047FD2305A98A
:10438000089309A8144B984705A8A0472846134B43
:1043900008A9984709A8A04702A8BBE705A908A84B
:1043A000D047FB680BB9164B984708A93B69381DE5
:1043B0009847074608A8A0472846124B9847284622
:1043C0003946114B984705A8A047A5E70000000013
:1043D000000000001F0600000000000000000000B8
:1043E000000000003F0600008E06000004060000EA
:1043F00000000000A2060000000000000000000015
:1044000000000000000000000000000000000000AC
:10441000000000002DE9F0473F4B07468CB00846EE
:10442000894615469847DFF8308106463B4CA8B9C7
:104430003B4905A8C047FD2305A9089309A8394BA6
:10444000984705A8A0472846374B08A9984709A8C8
:10445000A047002630460CB0BDE8F0870023484650
:10446000019301A9314B9847019B0BB93049E0E713
:10447000012B01D02F49DCE72F4905A8C04748464A
:104480002E4B05A99847B0F10009DFF8D0A023DA38
:1044900005A8A0472A4902A8C0470A226FEA0901D5
:1044A000284B08A89847284B08A902A8984708A8AD
:1044B000A04702A905A8D047FD2305A9089309A88C
:1044C000184B984705A8A0472846174B08A99847B6
:1044D00009A8A04702A8BBE705A908A8D047FB6820
:1044E0000BB91A4B984708A93B69381D98470746EE
:1044F00008A8A04767F03D072846154B984728466F
:10450000144B8DF8207008A99847EB6805A8013373
:10451000EB60A0479EE700BF000000000000000025
:104520001F06000000000000000000000000000066
:104530003F0600008E060000040600000000000098
:10454000A2060000000000000000000000000000C3
:10455000000000000000000000000000000000005B
:104560002DE9F043D0F80C640546032E8846174623
:104570001C468BB040F28680D0F80834012B40F006
:104580008180414B04A89847404B04A89847324685
:104590003F4B291D04A8984738B900263D4B05A874
:1045A000984730460BB0BDE8F0834FF000093A4E13
:1045B00003AB02AA01A904A8CDF80490B0470646AF
:1045C0000028EAD0039B4345E7D1029B012B0AD088
:1045D0002046FC23314940F8043B314B984728469C
:1045E000304B9847DAE7019B042B05D02046FC238B
:1045F0002D4940F8043BF0E72C4B04A88DF80090BF
:104600009847C02831D19DF824301BB1DDE905233E
:104610009A4208D100238DF825302046FC232449F6
:1046200040F8043BD9E79B1A089AB2EBA30FF1D2EA
:10463000204B04A898479DF825308DF80000002BEA
:10464000EBD039461C4B04A898470028E5D01B4BFB
:1046500000222846D5F80C1498474FF0FF33C5F8D0
:1046600008340023C5F80C3498E76A462146144BF9
:1046700004A898470028EAD12046FC23114940F8B5
:10468000043BAAE700268CE70000000000000000C1
:10469000000000000000000000000000C50600004F
:1046A0000000000000000000DE0600000000000026
:1046B000FB060000000000000000000000000000F9
:1046C000000000001C0700002DE9F74F037D0446A1
:1046D0000F46002B3CD1DFF8A080224D642200233E
:1046E000E06AC04730BB606A236B006804F11002C7
:1046F00004F118011C4DA8471C4EE06AB047DFF8D2
:104700006490DFF878A0DFF878B064220023A06A14
:10471000C04720BB656A216928680191D0472346BC
:104720003A4601992868D84730B9A06AB047104B7B
:104730009847EAE7A847D1E7214651F8043B45F8F6
:10474000043F281D0B4B9847A06AB04701232375EF
:104750002068B0FA80F0400903B0BDE8F08FC84788
:10476000D3E700BF000000000000000000000000D0
:104770000000000000000000000000000000000039
:10478000000000002DE9F04796B003AE0C46154638
:10479000074638493046DFF80481C047DFF800910A
:1047A0002544A54258D13C6900252746324906A830
:1047B000C047324B09A857F8108B9847304B06A9D1
:1047C0000FA824340D958DF8385098472D4B02A929
:1047D00009A8CDE91446CDE9128798479DF83830ED
:1047E00004468DF80450002B27D1274F274D642213
:1047F00000231498B847002833D11298159B0068FD
:10480000234D0DAA0FA9A8471498224DA847DFF8F9
:104810007C80DFF89090DFF890A06422002313984A
:10482000B84720BB0D99129809AB01AAC847D0B16F
:104830001398A84701238DF83830174D0FA8A847C3
:104840000AA8A84706A8A84704B1029C3046A84772
:10485000204616B0BDE8F087304614F8011BC84763
:104860009FE7A847C3E71398A847D047D5E7C047B5
:10487000D3E700BF04060000D307000000000000DB
:104880000000000000000000000000000000000028
:104890000000000000000000000000000000000018
:1048A0000000000000000000000000002DE9F043BF
:1048B000D0F80C640546032E884617461C468BB07C
:1048C00040F28680D0F80834012B40F08180414BC3
:1048D00004A89847404B04A8984732463F4B291DEF
:1048E00004A8984738B900263D4B05A8984730469C
:1048F0000BB0BDE8F0834FF000093A4E03AB02AABB
:1049000001A904A8CDF80490B04706460028EAD0D3
:10491000039B4345E7D1029B012B0AD02046FC2391
:10492000314940F8043B314B98472846304B984773
:10493000DAE7019B042B05D02046FC232D4940F8E3
:10494000043BF0E72C4B04A88DF800909847C02852
:1049500031D19DF824301BB1DDE905239A4208D1FD
:1049600000238DF825302046FC23244940F8043BE1
:10497000D9E79B1A089AB2EBA30FF1D2204B04A8F7
:1049800098479DF825308DF80000002BEBD0394674
:104990001C4B04A898470028E5D01B4B0022284652
:1049A000D5F80C1498474FF0FF33C5F808340023AE
:1049B000C5F80C3498E76A462146144B04A898477A
:1049C0000028EAD12046FC23114940F8043BAAE71D
:1049D00000268CE70000000000000000000000003E
:1049E0000000000000000000C506000000000000FC
:1049F00000000000DE06000000000000FB060000D2
:104A000000000000000000000000000000000000A6
:104A10001C0700002DE9F74F037D04460F46002BCD
:104A20003CD1DFF8A080224D64220023E06AC04719
:104A300030BB606A236B006804F1100204F11801B6
:104A40001C4DA8471C4EE06AB047DFF86490DFF8C1
:104A500078A0DFF878B064220023A06AC04720BBAA
:104A6000656A216928680191D04723463A46019931
:104A70002868D84730B9A06AB047104B9847EAE792
:104A8000A847D1E7214651F8043B45F8043F281DCB
:104A90000B4B9847A06AB047012323752068B0FAF2
:104AA00080F0400903B0BDE8F08FC847D3E700BFEE
:104AB00000000000000000000000000000000000F6
:104AC00000000000000000000000000000000000E6
:104AD0002DE9F04397B004460191002969D0066999
:104AE000002537464449454B06A8CDE903550595B1
:104AF0009847434B09A857F8108B984706A9414B94
:104B00000FA80D958DF83850243698473E4D01ABCF
:104B100006A81593CDE912871496A8473B4B03A925
:104B200009A8984778B104F508764FF0FF32384964
:104B30004FF0FF3330468847DDE903218A423BD1FD
:104B40003046344B984700238DF818309DF83830A4
:104B5000002B27D12E4E304C642200231498B047EE
:104B6000002841D11298159B00682C4C0DAA0FA962
:104B7000A0471498274CA047274FDFF8A880DFF8FC
:104B8000A890642200231398B047002832D10D99D1
:104B9000129809AB06AAC04740B31398A047012357
:104BA0008DF838300FA8A8470AA8A8471C4B03A8BF
:104BB000984717B0BDE8F083D4F81C32B3F5007FF6
:104BC00010D0D4F81432107823441875D4F8143265
:104BD0000133C3F30803C4F81432D4F81C32013390
:104BE000C4F81C320132A9E7A047B5E71398A047E3
:104BF000C847C6E7B847C4E7DD070000000000006B
:104C000000000000000000000000000000000000A4
:104C10000000000000000000000000000000000094
:104C200000000000000000000000000038B504464D
:104C300000F508750B494FF0FF324FF0FF3328465F
:104C40008847D4F81C12C1F50071002902DD204606
:104C5000054B9847D4F81C422846044B98472046F9
:104C600038BD00BF00000000000000000000000090
:104C7000F8B50024334D344F1422214605F11000BD
:104C8000C5E90044EC60B8471422214605F1240030
:104C9000B847F822214605F14000C5E90E44B8475F
:104CA0002A4B2B4EAB604FF47A73B360294B4FF411
:104CB0000072214606F11400336085F838413561F1
:104CC0007460B8471422214606F50870C6F81442ED
:104CD000C6F81842C6F81C42B8471F4B08221D6090
:104CE0001E4D0D21C3E907441C765C6228461C4B0F
:104CF00086F8344298471B4B6822214605F149004B
:104D00002B60C5E9104485F84840B8476423164A2B
:104D1000C5E92D341368C5E934440133012BA5F8E6
:104D2000D84013600DD10326104DC5E9004405F1AC
:104D300008004FF483620021B847013E05F5846501
:104D4000F3D1F8BD000000000000000000000000EA
:104D5000000000000800000000000000000000004B
:104D6000000000000800000000000000000000003B
:104D700008B5054A05481368013B1360044B984782
:104D8000044B0548984708BD0000000000000000E3
:104D900000000000000000001C00000038B50446C0
:104DA0000D46024B9847C4F8B45038BD00000000CF
:104DB00038B50446074B04F1BC05984704F1490097
:104DC0002A466821044B984729462046034B9847BA
:104DD00038BD00BF0000000000000000000000001F
:104DE00038B50446124B984794F8483063B904F13B
:104DF000BC0568210F4B04F149002A469847294613
:104E000020460D4B984738BD636C032BFBD9226CB1
:104E1000084B682104F149009847236CD4F8B4206A
:104E2000DA60236C10332364636C103B6364EAE73D
:104E30000000000000000000000000007FB50546F3
:104E4000194C1022194E00216846B0476946204689
:104E5000174B98476822002104F14900B0472046CB
:104E6000144B984720464FF0FF31134B984720468C
:104E70003221124B984720461149124B9847124E47
:104E8000012220466FF07F430021B047294620468B
:104E90000E4B9847012120460D4B984720460D4B5D
:104EA000984704B070BD00BF000000000000000083
:104EB00000000000000000000000000000000000F2
:104EC00000000000000000000000000000000000E2
:104ED000000000000000000000234361037664230B
:104EE000C36301207047704713B504680093E46AF8
:104EF000A04702B010BD2DE9F74F9246427D04460F
:104F000089460AB9027D4AB14E4609EB03050C9B5E
:104F1000013D534403F1FF38AE4229DD03B0BDE843
:104F2000F08F4E4505D0AE4203D0574501D04745DE
:104F300012D1637D83B1A27F23680192627F0092C8
:104F4000D3F860B0237F3A4631462046D847013730
:104F50004745E6DD0136DFE7237D002BF7D0E27E13
:104F600023680192A27E0092D3F860B0637EEAE7E4
:104F70005746EDE701617047036923B190F8382087
:104F800018685043704718467047036923B190F87A
:104F9000392058685043704718467047012938BF78
:104FA0000121012A38BF012280F8381080F8392009
:104FB000704737B5DDB201950468C3F30725009546
:104FC000246EC3F30743A04703B030BD38B5044691
:104FD0001D4603689B6E98479DF8103084F82C504E
:104FE00084F82D309DF8143084F82E3038BD37B554
:104FF000DDB201950468C3F307250095E46EC3F3A1
:105000000743A04703B030BDC16370472DE9F04F9F
:1050100091B0CDE904120446017D407D1A9A70BB1F
:1050200051B303EBD3734FEA630A0AFB0AF302EBB3
:10503000D2724FEA620B02930BFB0BF30393039BB9
:10504000CBF10005DB170893029B4FEAE578DB17ED
:105050000993DDE9023283FB02230D93CAF10003B9
:105060000793DB170C920E934FEAEB73AB4573EB90
:10507000080370DA637D93B911B0BDE8F08F03EBDC
:10508000D3734FEA630A0AFB0AF302EBD2724FEAC8
:10509000620B02930BFB0BF303930029CFD1CAF1F0
:1050A0000005EE174FEAEA73AA45B34180F2A080EB
:1050B000CBF10005EE174FEAEB73AB45B341DBDBF9
:1050C00028463146704B9847704F02460B46B8470A
:1050D0006F4F804603988946B84702460B464046C4
:1050E0004946DFF8BC81C047DFF8B88102460B466D
:1050F00000206849C047684B41EC100B984759ECB9
:10510000108B5046B84742464B46604FB847634BFA
:1051100098470746A27F059B049903EB050923687E
:105120000192627F01440092D3F860804A46204693
:10513000237FC047A27F23680192627F0499009277
:10514000D3F860804A462046237FC91BC0470135FB
:1051500046F10006AFE7A5FB057205FB08F302EB7D
:105160004302099B02997B4301FB0233A7FB012108
:105170000B920A461A444FEAEA730A93059B079E6C
:10518000DDF8389006925A190A9BB24573EB090371
:1051900003DA013548F1000866E7A6FB063006FB96
:1051A00009F100EB41000899039F594307FB0011E7
:1051B000A3FB073001440B981B18069841EB000134
:1051C0000C9898420D9B73EB01010DDBE17E236887
:1051D0000191A17E0F9200911B6E04991F462046FB
:1051E000637E3144B8470F9A013649F10009CBE795
:1051F00028463146244B9847244F02460B46B84771
:10520000234F804602988946B84702460B464046DF
:105210004946DFF88C80C047DFF8888002460B469D
:1052200000201C49C0471C4B41EC100B984759EC1F
:10523000108B5846B84742464B46144FB847174B59
:1052400098470746A27F049B03EB05092368019258
:10525000627F49460092059AD3F860800244237F1A
:105260002046C047A27F23680192627F4946009290
:10527000059AD3F860802046237FD21BC0470135B2
:1052800046F100060EE700BF00000000000000002D
:10529000000000000000F03F0000000000000000DF
:1052A00000000000000000002DE9F04F804687B0AC
:1052B0009A4608461C4B8946049298470026109B44
:1052C000039023EAE3734FEA830B119B9E4227DA94
:1052D0000027039C0AEB060212E014F8020CD8F82F
:1052E000001014F8043C019014F8030C059200908F
:1052F000096E40460D4604993944A847059A01377E
:10530000109B04349F42E8DB084B48469847109BAB
:105310000136C01A039B0BEB800003440393D4E7D0
:1053200007B0BDE8F08F00BF0000000000000000E3
:105330002DE9F04F804687B09A4608461C4B8946B7
:10534000049298470026109B039023EAE37303EB33
:10535000430B119B9E4228DA0027039C0AEB0602AE
:1053600012E014F8010CD8F8001014F8033C019076
:1053700014F8020C05920090096E40460D460499FF
:105380003944A847059A0137109B03349F42E8DB54
:10539000084B48469847109B0136C01A00EB400066
:1053A000039B584403440393D3E707B0BDE8F08F51
:1053B00000000000000000002DE9F04F074685B016
:1053C0009B4608461D4B88469146984700260E9BF3
:1053D000029023EAE37A0F9B9E4229DB05B0BDE8E9
:1053E000F08F029B386833F815104FEAC10C0B0A96
:1053F000C9085FFA8CF201F0FC0100910192026E83
:1054000009EB050114463846039A03F0F803A04758
:1054100001350E9B9D42E4DB094B404698470E9BAD
:105420000136C01A029B504403EB40030293D2E7BB
:105430000BEB060300250393EBE700BF0000000021
:10544000000000002DE9F7431F4603680546D3F826
:105450005C900846084B0C4616469847074B80461A
:10546000204698473B46CDE90080324621462846F3
:10547000C84703B0BDE8F083000000000000000052
:105480002DE9F0471F46DDE908890B6804469B6853
:1054900008460D461646984760B306EB080309EB2D
:1054A0000702134326D4A368B34223DBE368BB425D
:1054B00020DB2846104B984701280FD0022813D034
:1054C000C0B92368CDE90889D3F880E03B4632466D
:1054D00029462046F446BDE8F04760472368CDE9F9
:1054E0000889D3F884E0F1E72368CDE90889D3F887
:1054F00088E0EBE7BDE8F0870000000008B501F1A7
:105500003E03DBB2012B02D9024B20309847012029
:1055100008BD00BF000000000149024B20301847C1
:10552000A80B00000000000070B504460E461546AA
:105530000349044B20309847C4E90C6570BD00BF97
:10554000A80B0000000000002DE9F04F0546437D48
:1055500089B00493837F01290593838B04460693C6
:105560000E4655F8203B51D11B6DD0F82880984746
:10557000276BDFF8B892013708FB00774FF000087F
:10558000B84510DB049B002B00F0498101236375B3
:10559000069BA383059BA3772846A249A24B09B08B
:1055A000BDE8F04F1847236820461B6A9847236BD5
:1055B000A28DA3EB080B94F82E30A283A377236867
:1055C0006675D3F840A05A4629462046636BD047FB
:1055D0002169A26A0B68E08A02FB03B3227EA083E2
:1055E000A2776675626B49682068114401390091A1
:1055F000D0F830A019462046D047236820465B6A81
:105600009847E06BC84708F10108B9E7022957D16C
:105610001B6D876A9847266B4FF0010807FB0066F1
:105620000027DFF808A206F1FF39B742AADA23689B
:1056300020461B6A9847216BA9EB0703CA1A94F806
:105640002E30A18DA3772368A18384F81580D3F829
:1056500040B029462046636B0792D847079A237EBD
:10566000511EE28AA3772369A28384F81580626BB6
:105670005B6820681344013B0093D0F830B00B46C0
:1056800020460791D847236994F8392098680392F7
:1056900094F83820079902925B680A46CDE90083A6
:1056A0002368D0F88010D3F87CB02046636BD847CD
:1056B000236820465B6A9847E06BD0470137B4E720
:1056C00003293FD15B6D984700264FF00108636BBB
:1056D000DFF85891C718B742FFF654AF2368204649
:1056E0001B6A9847636BA28DA3EB060B94F82E30D0
:1056F000A283A377236884F81580D3F840A02946B5
:105700005B462046226BD0472369217E5A68E08A97
:10571000A1775A4484F81580A083216B1868009201
:10572000236801F1FF3CD3F830A0A36A013603FBE4
:1057300000C32046D047236820465B6A9847E06B49
:10574000C847C8E7042955D15B6D9847636B0127AB
:10575000C6180023DFF8D490B34203F10108BFF666
:1057600011AF236820461B6A9847626BA6EB0803BB
:10577000A2EB030B94F82E30A28DA3772368A283AB
:105780006775D3F840A029465B462046226BD04778
:10579000237EE28AA377236920686775A2830BF1D1
:1057A000FF3B1A68216BCDF800B0D0F830A0A06A9A
:1057B0004B1E00FB02335A462046D047236994F81B
:1057C000390099682268039094F83800CDE9017097
:1057D0001B6820460093D1F880105B46D2F87CA06D
:1057E000226BD047236820465B6A9847E06BC84726
:1057F0004346B1E71B6A9847012194F82E30A28DE9
:10580000A37723686175A28320461E6C2946D4E9DC
:105810000C23B047236820465B6A9847B2E6049B96
:105820006375B9E6A80B000000000000000000004E
:1058300037B5447D3CB1857F04680195457F037F82
:105840000095246EA04703B030BD2DE9FF411F46EF
:105850000369044616462BB1437D1BB14D1E15F856
:10586000012F12B904B0BDE8F0810A2A06D12269DD
:1058700094F83930526802FB0377F0E70D2A24D000
:1058800002F13E03DBB2012BE9D92369986850F895
:10589000221011B9D0F8801081B194F83900226833
:1058A000039094F838000290586801901B682046D5
:1058B0000093D2F87C803B463246C047226994F878
:1058C0003830126802FB0366C9E70026C7E72DE9F6
:1058D000F04F93461A46437D89B09DF850609DF87D
:1058E00054A00391D3B1CEB1BAF1000F16D0A9B133
:1058F000129B139903FB06B30AFB01210B430DD442
:1059000083689B450ADCC3689A4207DC0023029344
:10591000731E0493139B02998B4202DC09B0BDE80D
:10592000F08F4FF00008DDE902135B5C0593C3685C
:105930004345F3DD5C464FF00009129B4B4524DDE7
:10594000059BC9F1070543FA05F515F0010526D0B9
:105950000025817F03680191417F079200911B6EB2
:1059600061191F460690037F0135B847DDE906023D
:10597000EBB2B342EDD3002E9DF8103008BF0023E8
:1059800001341C448368A3421CDC08F10108D045A3
:1059900002F10102CBD1029B01330293BAE7017EEF
:1059A00003680191C17D079200911B6E61191F462A
:1059B0000690837D0135B847DDE90602EBB29E42D1
:1059C000EDD8D8E709F10109B7E70000002310B5C9
:1059D000044643600748C4E9021220602361064977
:1059E000064B04F12000984740F20113238720461C
:1059F00010BD00BF08000000A80B00000000000060
:105A000010B50446034B40F8203B034B9847204613
:105A100010BD00BF08000000000000000123437516
:105A20000B0C03770B0A4377817770472DE9F04F12
:105A300085B01F460E9B0E469C1A15464CBF4FF074
:105A4000FF394FF00109A7EB010848BFD41A4FEA0C
:105A5000440AC8EB44044FEA4808BE4202DD05B0E0
:105A6000BDE8F08F827F03680192427F3146009249
:105A7000D3F860B02A46037F0390D847002CC8BFF4
:105A8000A4EB08040398C8BF4D4454440136E4E72E
:105A90002DE9F74F16465C1A80460D464CBF4FF075
:105AA000FF394FF001090C9A48BFCC1A971B4FEAF7
:105AB000440AC7EB44047F000C9B9E4202DD03B006
:105AC000BDE8F08F98F81E20D8F80030019298F8C1
:105AD0001D2029460092D3F860B03246404698F81F
